{
  "contractName": "SunnyBunny",
  "abi": [
    {
      "inputs": [
        {
          "internalType": "address",
          "name": "feeReciever",
          "type": "address"
        },
        {
          "internalType": "uint8",
          "name": "feePercent",
          "type": "uint8"
        }
      ],
      "stateMutability": "nonpayable",
      "type": "constructor"
    },
    {
      "anonymous": false,
      "inputs": [
        {
          "indexed": true,
          "internalType": "address",
          "name": "owner",
          "type": "address"
        },
        {
          "indexed": true,
          "internalType": "address",
          "name": "spender",
          "type": "address"
        },
        {
          "indexed": false,
          "internalType": "uint256",
          "name": "value",
          "type": "uint256"
        }
      ],
      "name": "Approval",
      "type": "event"
    },
    {
      "anonymous": false,
      "inputs": [
        {
          "indexed": true,
          "internalType": "address",
          "name": "previousOwner",
          "type": "address"
        },
        {
          "indexed": true,
          "internalType": "address",
          "name": "newOwner",
          "type": "address"
        }
      ],
      "name": "OwnershipTransferred",
      "type": "event"
    },
    {
      "anonymous": false,
      "inputs": [
        {
          "indexed": true,
          "internalType": "address",
          "name": "from",
          "type": "address"
        },
        {
          "indexed": true,
          "internalType": "address",
          "name": "to",
          "type": "address"
        },
        {
          "indexed": false,
          "internalType": "uint256",
          "name": "value",
          "type": "uint256"
        }
      ],
      "name": "Transfer",
      "type": "event"
    },
    {
      "inputs": [],
      "name": "_name",
      "outputs": [
        {
          "internalType": "string",
          "name": "",
          "type": "string"
        }
      ],
      "stateMutability": "view",
      "type": "function"
    },
    {
      "inputs": [],
      "name": "_symbol",
      "outputs": [
        {
          "internalType": "string",
          "name": "",
          "type": "string"
        }
      ],
      "stateMutability": "view",
      "type": "function"
    },
    {
      "inputs": [],
      "name": "decimals",
      "outputs": [
        {
          "internalType": "uint8",
          "name": "",
          "type": "uint8"
        }
      ],
      "stateMutability": "view",
      "type": "function"
    },
    {
      "inputs": [],
      "name": "name",
      "outputs": [
        {
          "internalType": "string",
          "name": "",
          "type": "string"
        }
      ],
      "stateMutability": "view",
      "type": "function"
    },
    {
      "inputs": [],
      "name": "owner",
      "outputs": [
        {
          "internalType": "address",
          "name": "",
          "type": "address"
        }
      ],
      "stateMutability": "view",
      "type": "function"
    },
    {
      "inputs": [],
      "name": "renounceOwnership",
      "outputs": [],
      "stateMutability": "nonpayable",
      "type": "function"
    },
    {
      "inputs": [],
      "name": "symbol",
      "outputs": [
        {
          "internalType": "string",
          "name": "",
          "type": "string"
        }
      ],
      "stateMutability": "view",
      "type": "function"
    },
    {
      "inputs": [
        {
          "internalType": "address",
          "name": "newOwner",
          "type": "address"
        }
      ],
      "name": "transferOwnership",
      "outputs": [],
      "stateMutability": "nonpayable",
      "type": "function"
    },
    {
      "inputs": [
        {
          "internalType": "address",
          "name": "feeReceiver",
          "type": "address"
        }
      ],
      "name": "setReceiver",
      "outputs": [],
      "stateMutability": "nonpayable",
      "type": "function"
    },
    {
      "inputs": [],
      "name": "getFeeReceiver",
      "outputs": [
        {
          "internalType": "address",
          "name": "",
          "type": "address"
        }
      ],
      "stateMutability": "view",
      "type": "function"
    },
    {
      "inputs": [
        {
          "internalType": "uint8",
          "name": "feePercent",
          "type": "uint8"
        }
      ],
      "name": "setFeePercent",
      "outputs": [],
      "stateMutability": "nonpayable",
      "type": "function"
    },
    {
      "inputs": [],
      "name": "getFeePercent",
      "outputs": [
        {
          "internalType": "uint8",
          "name": "",
          "type": "uint8"
        }
      ],
      "stateMutability": "view",
      "type": "function"
    },
    {
      "inputs": [],
      "name": "totalSupply",
      "outputs": [
        {
          "internalType": "uint256",
          "name": "",
          "type": "uint256"
        }
      ],
      "stateMutability": "view",
      "type": "function"
    },
    {
      "inputs": [
        {
          "internalType": "address",
          "name": "account",
          "type": "address"
        }
      ],
      "name": "balanceOf",
      "outputs": [
        {
          "internalType": "uint256",
          "name": "",
          "type": "uint256"
        }
      ],
      "stateMutability": "view",
      "type": "function"
    },
    {
      "inputs": [
        {
          "internalType": "address",
          "name": "recipient",
          "type": "address"
        },
        {
          "internalType": "uint256",
          "name": "amount",
          "type": "uint256"
        }
      ],
      "name": "transfer",
      "outputs": [
        {
          "internalType": "bool",
          "name": "",
          "type": "bool"
        }
      ],
      "stateMutability": "nonpayable",
      "type": "function"
    },
    {
      "inputs": [
        {
          "internalType": "address",
          "name": "_owner",
          "type": "address"
        },
        {
          "internalType": "address",
          "name": "spender",
          "type": "address"
        }
      ],
      "name": "allowance",
      "outputs": [
        {
          "internalType": "uint256",
          "name": "",
          "type": "uint256"
        }
      ],
      "stateMutability": "view",
      "type": "function"
    },
    {
      "inputs": [
        {
          "internalType": "address",
          "name": "spender",
          "type": "address"
        },
        {
          "internalType": "uint256",
          "name": "amount",
          "type": "uint256"
        }
      ],
      "name": "approve",
      "outputs": [
        {
          "internalType": "bool",
          "name": "",
          "type": "bool"
        }
      ],
      "stateMutability": "nonpayable",
      "type": "function"
    },
    {
      "inputs": [
        {
          "internalType": "address",
          "name": "sender",
          "type": "address"
        },
        {
          "internalType": "address",
          "name": "recipient",
          "type": "address"
        },
        {
          "internalType": "uint256",
          "name": "amount",
          "type": "uint256"
        }
      ],
      "name": "transferFrom",
      "outputs": [
        {
          "internalType": "bool",
          "name": "",
          "type": "bool"
        }
      ],
      "stateMutability": "nonpayable",
      "type": "function"
    },
    {
      "inputs": [
        {
          "internalType": "address",
          "name": "spender",
          "type": "address"
        },
        {
          "internalType": "uint256",
          "name": "addedValue",
          "type": "uint256"
        }
      ],
      "name": "increaseAllowance",
      "outputs": [
        {
          "internalType": "bool",
          "name": "",
          "type": "bool"
        }
      ],
      "stateMutability": "nonpayable",
      "type": "function"
    },
    {
      "inputs": [
        {
          "internalType": "address",
          "name": "spender",
          "type": "address"
        },
        {
          "internalType": "uint256",
          "name": "subtractedValue",
          "type": "uint256"
        }
      ],
      "name": "decreaseAllowance",
      "outputs": [
        {
          "internalType": "bool",
          "name": "",
          "type": "bool"
        }
      ],
      "stateMutability": "nonpayable",
      "type": "function"
    }
  ],
  "bytecode": "0x60806040526040518060400160405280600b81526020017f53756e6e792042756e6e790000000000000000000000000000000000000000008152506008908051906020019062000051929190620004a2565b506040518060400160405280600381526020017f5375420000000000000000000000000000000000000000000000000000000000815250600990805190602001906200009f929190620004a2565b50348015620000ad57600080fd5b506040516200283f3803806200283f8339818101604052810190620000d3919062000580565b60088054620000e29062000727565b80601f0160208091040260200160405190810160405280929190818152602001828054620001109062000727565b8015620001615780601f10620001355761010080835404028352916020019162000161565b820191906000526020600020905b8154815290600101906020018083116200014357829003601f168201915b505050505060098054620001759062000727565b80601f0160208091040260200160405190810160405280929190818152602001828054620001a39062000727565b8015620001f45780601f10620001c857610100808354040283529160200191620001f4565b820191906000526020600020905b815481529060010190602001808311620001d657829003601f168201915b5050505050816003908051906020019062000211929190620004a2565b5080600490805190602001906200022a929190620004a2565b5050506200024d62000241620003d460201b60201c565b620003dc60201b60201c565b600073ffffffffffffffffffffffffffffffffffffffff168273ffffffffffffffffffffffffffffffffffffffff161415620002c0576040517f08c379a0000000000000000000000000000000000000000000000000000000008152600401620002b790620006b3565b60405180910390fd5b8060ff16600f10156200030a576040517f08c379a0000000000000000000000000000000000000000000000000000000008152600401620003019062000691565b60405180910390fd5b69943b1377290cbd800000600b81905550600b546006600062000332620003d460201b60201c565b73ffffffffffffffffffffffffffffffffffffffff1673ffffffffffffffffffffffffffffffffffffffff1681526020019081526020016000208190555081600c60006101000a81548173ffffffffffffffffffffffffffffffffffffffff021916908373ffffffffffffffffffffffffffffffffffffffff16021790555080600a60006101000a81548160ff021916908360ff1602179055505050620007c0565b600033905090565b6000600560009054906101000a900473ffffffffffffffffffffffffffffffffffffffff16905081600560006101000a81548173ffffffffffffffffffffffffffffffffffffffff021916908373ffffffffffffffffffffffffffffffffffffffff1602179055508173ffffffffffffffffffffffffffffffffffffffff168173ffffffffffffffffffffffffffffffffffffffff167f8be0079c531659141344cd1fd0a4f28419497f9722a3daafe3b4186f6b6457e060405160405180910390a35050565b828054620004b09062000727565b90600052602060002090601f016020900481019282620004d4576000855562000520565b82601f10620004ef57805160ff191683800117855562000520565b8280016001018555821562000520579182015b828111156200051f57825182559160200191906001019062000502565b5b5090506200052f919062000533565b5090565b5b808211156200054e57600081600090555060010162000534565b5090565b60008151905062000563816200078c565b92915050565b6000815190506200057a81620007a6565b92915050565b600080604083850312156200059457600080fd5b6000620005a48582860162000552565b9250506020620005b78582860162000569565b9150509250929050565b6000620005d0602483620006d5565b91507f4120666565206d6967687420746f2062652073657420746f20313525206f722060008301527f6c657373000000000000000000000000000000000000000000000000000000006020830152604082019050919050565b600062000638602d83620006d5565b91507f546f6b656e7320636f756c646e2774206265207472616e7366657220746f206160008301527f207a65726f2061646472657373000000000000000000000000000000000000006020830152604082019050919050565b60006020820190508181036000830152620006ac81620005c1565b9050919050565b60006020820190508181036000830152620006ce8162000629565b9050919050565b600082825260208201905092915050565b6000620006f382620006fa565b9050919050565b600073ffffffffffffffffffffffffffffffffffffffff82169050919050565b600060ff82169050919050565b600060028204905060018216806200074057607f821691505b602082108114156200075757620007566200075d565b5b50919050565b7f4e487b7100000000000000000000000000000000000000000000000000000000600052602260045260246000fd5b6200079781620006e6565b8114620007a357600080fd5b50565b620007b1816200071a565b8114620007bd57600080fd5b50565b61206f80620007d06000396000f3fe608060405234801561001057600080fd5b506004361061012c5760003560e01c806395d89b41116100ad578063d28d885211610071578063d28d885214610349578063dd62ed3e14610367578063e8a3539214610397578063f2fde38b146103b5578063f4838176146103d15761012c565b806395d89b411461028f578063a457c2d7146102ad578063a9059cbb146102dd578063b09f12661461030d578063be74264d1461032b5761012c565b806339509351116100f457806339509351146101eb57806370a082311461021b578063715018a61461024b578063718da7ee146102555780638da5cb5b146102715761012c565b806306fdde0314610131578063095ea7b31461014f57806318160ddd1461017f57806323b872dd1461019d578063313ce567146101cd575b600080fd5b6101396103ed565b6040516101469190611be7565b60405180910390f35b6101696004803603810190610164919061169b565b61047f565b6040516101769190611bcc565b60405180910390f35b61018761049d565b6040516101949190611d69565b60405180910390f35b6101b760048036038101906101b2919061164c565b6104a7565b6040516101c49190611bcc565b60405180910390f35b6101d561059f565b6040516101e29190611d84565b60405180910390f35b6102056004803603810190610200919061169b565b6105a8565b6040516102129190611bcc565b60405180910390f35b610235600480360381019061023091906115e7565b610654565b6040516102429190611d69565b60405180910390f35b61025361069d565b005b61026f600480360381019061026a91906115e7565b610725565b005b610279610855565b6040516102869190611bb1565b60405180910390f35b61029761087f565b6040516102a49190611be7565b60405180910390f35b6102c760048036038101906102c2919061169b565b610911565b6040516102d49190611bcc565b60405180910390f35b6102f760048036038101906102f2919061169b565b6109fc565b6040516103049190611bcc565b60405180910390f35b610315610a1a565b6040516103229190611be7565b60405180910390f35b610333610aa8565b6040516103409190611d84565b60405180910390f35b610351610b3b565b60405161035e9190611be7565b60405180910390f35b610381600480360381019061037c9190611610565b610bc9565b60405161038e9190611d69565b60405180910390f35b61039f610c50565b6040516103ac9190611bb1565b60405180910390f35b6103cf60048036038101906103ca91906115e7565b610cf6565b005b6103eb60048036038101906103e691906116d7565b610dee565b005b6060600380546103fc90611f24565b80601f016020809104026020016040519081016040528092919081815260200182805461042890611f24565b80156104755780601f1061044a57610100808354040283529160200191610475565b820191906000526020600020905b81548152906001019060200180831161045857829003601f168201915b5050505050905090565b600061049361048c610ecf565b8484610ed7565b6001905092915050565b6000600b54905090565b60006104b48484846110a9565b6000600760008673ffffffffffffffffffffffffffffffffffffffff1673ffffffffffffffffffffffffffffffffffffffff16815260200190815260200160002060006104ff610ecf565b73ffffffffffffffffffffffffffffffffffffffff1673ffffffffffffffffffffffffffffffffffffffff1681526020019081526020016000205490508281101561057f576040517f08c379a000000000000000000000000000000000000000000000000000000000815260040161057690611cc9565b60405180910390fd5b6105938561058b610ecf565b858403610ed7565b60019150509392505050565b60006012905090565b600061064a6105b5610ecf565b8484600760006105c3610ecf565b73ffffffffffffffffffffffffffffffffffffffff1673ffffffffffffffffffffffffffffffffffffffff16815260200190815260200160002060008873ffffffffffffffffffffffffffffffffffffffff1673ffffffffffffffffffffffffffffffffffffffff168152602001908152602001600020546106459190611dbb565b610ed7565b6001905092915050565b6000600660008373ffffffffffffffffffffffffffffffffffffffff1673ffffffffffffffffffffffffffffffffffffffff168152602001908152602001600020549050919050565b6106a5610ecf565b73ffffffffffffffffffffffffffffffffffffffff166106c3610855565b73ffffffffffffffffffffffffffffffffffffffff1614610719576040517f08c379a000000000000000000000000000000000000000000000000000000000815260040161071090611ce9565b60405180910390fd5b610723600061148a565b565b61072d610ecf565b73ffffffffffffffffffffffffffffffffffffffff1661074b610855565b73ffffffffffffffffffffffffffffffffffffffff16146107a1576040517f08c379a000000000000000000000000000000000000000000000000000000000815260040161079890611ce9565b60405180910390fd5b600073ffffffffffffffffffffffffffffffffffffffff168173ffffffffffffffffffffffffffffffffffffffff161415610811576040517f08c379a000000000000000000000000000000000000000000000000000000000815260040161080890611ca9565b60405180910390fd5b80600c60006101000a81548173ffffffffffffffffffffffffffffffffffffffff021916908373ffffffffffffffffffffffffffffffffffffffff16021790555050565b6000600560009054906101000a900473ffffffffffffffffffffffffffffffffffffffff16905090565b60606004805461088e90611f24565b80601f01602080910402602001604051908101604052809291908181526020018280546108ba90611f24565b80156109075780601f106108dc57610100808354040283529160200191610907565b820191906000526020600020905b8154815290600101906020018083116108ea57829003601f168201915b5050505050905090565b60008060076000610920610ecf565b73ffffffffffffffffffffffffffffffffffffffff1673ffffffffffffffffffffffffffffffffffffffff16815260200190815260200160002060008573ffffffffffffffffffffffffffffffffffffffff1673ffffffffffffffffffffffffffffffffffffffff168152602001908152602001600020549050828110156109dd576040517f08c379a00000000000000000000000000000000000000000000000000000000081526004016109d490611d49565b60405180910390fd5b6109f16109e8610ecf565b85858403610ed7565b600191505092915050565b6000610a10610a09610ecf565b84846110a9565b6001905092915050565b60098054610a2790611f24565b80601f0160208091040260200160405190810160405280929190818152602001828054610a5390611f24565b8015610aa05780601f10610a7557610100808354040283529160200191610aa0565b820191906000526020600020905b815481529060010190602001808311610a8357829003601f168201915b505050505081565b6000610ab2610ecf565b73ffffffffffffffffffffffffffffffffffffffff16610ad0610855565b73ffffffffffffffffffffffffffffffffffffffff1614610b26576040517f08c379a0000000000000000000000000000000000000000000000000000000008152600401610b1d90611ce9565b60405180910390fd5b600a60009054906101000a900460ff16905090565b60088054610b4890611f24565b80601f0160208091040260200160405190810160405280929190818152602001828054610b7490611f24565b8015610bc15780601f10610b9657610100808354040283529160200191610bc1565b820191906000526020600020905b815481529060010190602001808311610ba457829003601f168201915b505050505081565b6000600760008473ffffffffffffffffffffffffffffffffffffffff1673ffffffffffffffffffffffffffffffffffffffff16815260200190815260200160002060008373ffffffffffffffffffffffffffffffffffffffff1673ffffffffffffffffffffffffffffffffffffffff16815260200190815260200160002054905092915050565b6000610c5a610ecf565b73ffffffffffffffffffffffffffffffffffffffff16610c78610855565b73ffffffffffffffffffffffffffffffffffffffff1614610cce576040517f08c379a0000000000000000000000000000000000000000000000000000000008152600401610cc590611ce9565b60405180910390fd5b600c60009054906101000a900473ffffffffffffffffffffffffffffffffffffffff16905090565b610cfe610ecf565b73ffffffffffffffffffffffffffffffffffffffff16610d1c610855565b73ffffffffffffffffffffffffffffffffffffffff1614610d72576040517f08c379a0000000000000000000000000000000000000000000000000000000008152600401610d6990611ce9565b60405180910390fd5b600073ffffffffffffffffffffffffffffffffffffffff168173ffffffffffffffffffffffffffffffffffffffff161415610de2576040517f08c379a0000000000000000000000000000000000000000000000000000000008152600401610dd990611c49565b60405180910390fd5b610deb8161148a565b50565b610df6610ecf565b73ffffffffffffffffffffffffffffffffffffffff16610e14610855565b73ffffffffffffffffffffffffffffffffffffffff1614610e6a576040517f08c379a0000000000000000000000000000000000000000000000000000000008152600401610e6190611ce9565b60405180910390fd5b8060ff16600f1015610eb1576040517f08c379a0000000000000000000000000000000000000000000000000000000008152600401610ea890611c29565b60405180910390fd5b80600a60006101000a81548160ff021916908360ff16021790555050565b600033905090565b600073ffffffffffffffffffffffffffffffffffffffff168373ffffffffffffffffffffffffffffffffffffffff161415610f47576040517f08c379a0000000000000000000000000000000000000000000000000000000008152600401610f3e90611d29565b60405180910390fd5b600073ffffffffffffffffffffffffffffffffffffffff168273ffffffffffffffffffffffffffffffffffffffff161415610fb7576040517f08c379a0000000000000000000000000000000000000000000000000000000008152600401610fae90611c69565b60405180910390fd5b80600760008573ffffffffffffffffffffffffffffffffffffffff1673ffffffffffffffffffffffffffffffffffffffff16815260200190815260200160002060008473ffffffffffffffffffffffffffffffffffffffff1673ffffffffffffffffffffffffffffffffffffffff168152602001908152602001600020819055508173ffffffffffffffffffffffffffffffffffffffff16611057610855565b73ffffffffffffffffffffffffffffffffffffffff167f8c5be1e5ebec7d5bd14f71427d1e84f3dd0314c0f7b2291e5b200ac8c7c3b9258360405161109c9190611d69565b60405180910390a3505050565b600073ffffffffffffffffffffffffffffffffffffffff168373ffffffffffffffffffffffffffffffffffffffff161415611119576040517f08c379a000000000000000000000000000000000000000000000000000000000815260040161111090611d09565b60405180910390fd5b600073ffffffffffffffffffffffffffffffffffffffff168273ffffffffffffffffffffffffffffffffffffffff161415611189576040517f08c379a000000000000000000000000000000000000000000000000000000000815260040161118090611c09565b60405180910390fd5b611194838383611550565b60008061119f610855565b73ffffffffffffffffffffffffffffffffffffffff168573ffffffffffffffffffffffffffffffffffffffff1614156111de57600091508290506111f0565b6111e783611555565b80925081935050505b6000600660008773ffffffffffffffffffffffffffffffffffffffff1673ffffffffffffffffffffffffffffffffffffffff16815260200190815260200160002054905081811015611277576040517f08c379a000000000000000000000000000000000000000000000000000000000815260040161126e90611c89565b60405180910390fd5b818103600660008873ffffffffffffffffffffffffffffffffffffffff1673ffffffffffffffffffffffffffffffffffffffff1681526020019081526020016000208190555083600660008773ffffffffffffffffffffffffffffffffffffffff1673ffffffffffffffffffffffffffffffffffffffff168152602001908152602001600020600082825461130c9190611dbb565b925050819055508260066000600c60009054906101000a900473ffffffffffffffffffffffffffffffffffffffff1673ffffffffffffffffffffffffffffffffffffffff1673ffffffffffffffffffffffffffffffffffffffff16815260200190815260200160002060008282546113849190611dbb565b925050819055508473ffffffffffffffffffffffffffffffffffffffff168673ffffffffffffffffffffffffffffffffffffffff167fddf252ad1be2c89b69c2b068fc378daa952ba7f163c4a11628f55a4df523b3ef866040516113e89190611d69565b60405180910390a3600c60009054906101000a900473ffffffffffffffffffffffffffffffffffffffff1673ffffffffffffffffffffffffffffffffffffffff168673ffffffffffffffffffffffffffffffffffffffff167fddf252ad1be2c89b69c2b068fc378daa952ba7f163c4a11628f55a4df523b3ef8560405161146f9190611d69565b60405180910390a36114828686866115a3565b505050505050565b6000600560009054906101000a900473ffffffffffffffffffffffffffffffffffffffff16905081600560006101000a81548173ffffffffffffffffffffffffffffffffffffffff021916908373ffffffffffffffffffffffffffffffffffffffff1602179055508173ffffffffffffffffffffffffffffffffffffffff168173ffffffffffffffffffffffffffffffffffffffff167f8be0079c531659141344cd1fd0a4f28419497f9722a3daafe3b4186f6b6457e060405160405180910390a35050565b505050565b60008060006064600a60009054906101000a900460ff1660ff168561157a9190611e42565b6115849190611e11565b9050600081856115949190611dbb565b90508181935093505050915091565b505050565b6000813590506115b781611ff4565b92915050565b6000813590506115cc8161200b565b92915050565b6000813590506115e181612022565b92915050565b6000602082840312156115f957600080fd5b6000611607848285016115a8565b91505092915050565b6000806040838503121561162357600080fd5b6000611631858286016115a8565b9250506020611642858286016115a8565b9150509250929050565b60008060006060848603121561166157600080fd5b600061166f868287016115a8565b9350506020611680868287016115a8565b9250506040611691868287016115bd565b9150509250925092565b600080604083850312156116ae57600080fd5b60006116bc858286016115a8565b92505060206116cd858286016115bd565b9150509250929050565b6000602082840312156116e957600080fd5b60006116f7848285016115d2565b91505092915050565b61170981611e9c565b82525050565b61171881611eae565b82525050565b600061172982611d9f565b6117338185611daa565b9350611743818560208601611ef1565b61174c81611fe3565b840191505092915050565b6000611764602383611daa565b91507f45524332303a207472616e7366657220746f20746865207a65726f206164647260008301527f65737300000000000000000000000000000000000000000000000000000000006020830152604082019050919050565b60006117ca602483611daa565b91507f4120666565206d6967687420746f2062652073657420746f20313525206f722060008301527f6c657373000000000000000000000000000000000000000000000000000000006020830152604082019050919050565b6000611830602683611daa565b91507f4f776e61626c653a206e6577206f776e657220697320746865207a65726f206160008301527f64647265737300000000000000000000000000000000000000000000000000006020830152604082019050919050565b6000611896602283611daa565b91507f45524332303a20617070726f766520746f20746865207a65726f20616464726560008301527f73730000000000000000000000000000000000000000000000000000000000006020830152604082019050919050565b60006118fc602683611daa565b91507f45524332303a207472616e7366657220616d6f756e742065786365656473206260008301527f616c616e636500000000000000000000000000000000000000000000000000006020830152604082019050919050565b6000611962602a83611daa565b91507f52656365697665722773206164647265737320636f756c646e2774206265207360008301527f657420746f207a65726f000000000000000000000000000000000000000000006020830152604082019050919050565b60006119c8602883611daa565b91507f45524332303a207472616e7366657220616d6f756e742065786365656473206160008301527f6c6c6f77616e63650000000000000000000000000000000000000000000000006020830152604082019050919050565b6000611a2e602083611daa565b91507f4f776e61626c653a2063616c6c6572206973206e6f7420746865206f776e65726000830152602082019050919050565b6000611a6e602583611daa565b91507f45524332303a207472616e736665722066726f6d20746865207a65726f20616460008301527f64726573730000000000000000000000000000000000000000000000000000006020830152604082019050919050565b6000611ad4602483611daa565b91507f45524332303a20617070726f76652066726f6d20746865207a65726f2061646460008301527f72657373000000000000000000000000000000000000000000000000000000006020830152604082019050919050565b6000611b3a602583611daa565b91507f45524332303a2064656372656173656420616c6c6f77616e63652062656c6f7760008301527f207a65726f0000000000000000000000000000000000000000000000000000006020830152604082019050919050565b611b9c81611eda565b82525050565b611bab81611ee4565b82525050565b6000602082019050611bc66000830184611700565b92915050565b6000602082019050611be1600083018461170f565b92915050565b60006020820190508181036000830152611c01818461171e565b905092915050565b60006020820190508181036000830152611c2281611757565b9050919050565b60006020820190508181036000830152611c42816117bd565b9050919050565b60006020820190508181036000830152611c6281611823565b9050919050565b60006020820190508181036000830152611c8281611889565b9050919050565b60006020820190508181036000830152611ca2816118ef565b9050919050565b60006020820190508181036000830152611cc281611955565b9050919050565b60006020820190508181036000830152611ce2816119bb565b9050919050565b60006020820190508181036000830152611d0281611a21565b9050919050565b60006020820190508181036000830152611d2281611a61565b9050919050565b60006020820190508181036000830152611d4281611ac7565b9050919050565b60006020820190508181036000830152611d6281611b2d565b9050919050565b6000602082019050611d7e6000830184611b93565b92915050565b6000602082019050611d996000830184611ba2565b92915050565b600081519050919050565b600082825260208201905092915050565b6000611dc682611eda565b9150611dd183611eda565b9250827fffffffffffffffffffffffffffffffffffffffffffffffffffffffffffffffff03821115611e0657611e05611f56565b5b828201905092915050565b6000611e1c82611eda565b9150611e2783611eda565b925082611e3757611e36611f85565b5b828204905092915050565b6000611e4d82611eda565b9150611e5883611eda565b9250817fffffffffffffffffffffffffffffffffffffffffffffffffffffffffffffffff0483118215151615611e9157611e90611f56565b5b828202905092915050565b6000611ea782611eba565b9050919050565b60008115159050919050565b600073ffffffffffffffffffffffffffffffffffffffff82169050919050565b6000819050919050565b600060ff82169050919050565b60005b83811015611f0f578082015181840152602081019050611ef4565b83811115611f1e576000848401525b50505050565b60006002820490506001821680611f3c57607f821691505b60208210811415611f5057611f4f611fb4565b5b50919050565b7f4e487b7100000000000000000000000000000000000000000000000000000000600052601160045260246000fd5b7f4e487b7100000000000000000000000000000000000000000000000000000000600052601260045260246000fd5b7f4e487b7100000000000000000000000000000000000000000000000000000000600052602260045260246000fd5b6000601f19601f8301169050919050565b611ffd81611e9c565b811461200857600080fd5b50565b61201481611eda565b811461201f57600080fd5b50565b61202b81611ee4565b811461203657600080fd5b5056fea2646970667358221220dc825a9c0b5e828cecee6e9b15af9b92bf9dcfe7640c82d1baaec0c73cb559a364736f6c63430008000033",
  "immutableReferences": {},
  "source": "// SPDX-License-Identifier: MIT\n\n/// @author -    pragma ?\npragma solidity 0.8.0;\n\nimport \"@openzeppelin/contracts/token/ERC20/ERC20.sol\";\nimport \"@openzeppelin/contracts/token/ERC20/IERC20.sol\";\nimport \"@openzeppelin/contracts/utils/Context.sol\";\nimport \"@openzeppelin/contracts/access/Ownable.sol\";\n\ncontract SunnyBunny is ERC20, Ownable {\n\n    mapping(address => uint256) private _balances;\n    mapping(address => mapping(address => uint256)) private _allowances;\n\n    string public _name = \"Sunny Bunny\";\n    string public _symbol = \"SuB\";\n    uint8 private _feePercent;\n    uint256 private _totalSupply;\n\n    address internal _feeReceiver\n    ;\n\n    constructor(address feeReciever, uint8 feePercent) ERC20(_name, _symbol) {\n        require(feeReciever != address(0), \"Tokens couldn't be transfer to a zero address\");\n        require(15 >= feePercent, \"A fee might to be set to 15% or less\");\n        _totalSupply = 7e5 * 1e18;\n        _balances[_msgSender()] = _totalSupply;\n        _feeReceiver = feeReciever;\n        _feePercent = feePercent;\n    }\n\n    function setReceiver(address feeReceiver) public onlyOwner {\n        require(feeReceiver != address(0), \"Receiver\\'s address couldn\\'t be set to zero\");\n        _feeReceiver = feeReceiver;\n    }\n\n    function getFeeReceiver() view public onlyOwner returns(address) {\n        return _feeReceiver;\n    }\n\n    // A fee could not be bigger than 15%\n    function setFeePercent(uint8 feePercent) public onlyOwner {\n        require(15 >= feePercent, \"A fee might to be set to 15% or less\");\n        _feePercent = feePercent;\n    }\n\n    function getFeePercent() view public onlyOwner returns(uint8) {\n        return _feePercent;\n    }\n\n    /**@dev override native ERC20 function */\n    function _transfer(\n        address sender,\n        address recipient,\n        uint256 amount\n        ) internal override {\n            require(sender != address(0), \"ERC20: transfer from the zero address\");\n            require(recipient != address(0), \"ERC20: transfer to the zero address\");\n\n            _beforeTokenTransfer(sender, recipient, amount);\n            uint256 absoluteFee;\n            uint256 amountWithFee;\n\n            if(sender == owner()) {\n                absoluteFee = 0;\n                amountWithFee = amount;\n            } else (absoluteFee, amountWithFee) = calculateFee(amount);\n\n            uint256 senderBalance = _balances[sender];\n            require(senderBalance >= amountWithFee, \"ERC20: transfer amount exceeds balance\");\n            unchecked {\n                _balances[sender] = senderBalance - amountWithFee;\n            }\n            _balances[recipient] += amount;\n            _balances[_feeReceiver] += absoluteFee;\n\n            emit Transfer(sender, recipient, amount);\n            emit Transfer(sender, _feeReceiver, absoluteFee);\n\n            _afterTokenTransfer(sender, recipient, amount);\n        }\n\n    function calculateFee(uint256 amount) view internal returns (uint256, uint256) {\n        uint256 absoluteFee = amount * _feePercent / 100;\n        uint256 amountWithFee = amount + absoluteFee;\n        return (absoluteFee, amountWithFee);\n    }\n\n    ///////////  Below standard ERC20 functions almost \\\\\\\\\\\\\\\\\\\\\\\\\\\n\n    /**\n     * @dev See {IERC20-totalSupply}.\n     */\n    function totalSupply() public view virtual override returns (uint256) {\n        return _totalSupply;\n    }\n\n    /**\n     * @dev See {IERC20-balanceOf}.\n     */\n    function balanceOf(address account) public view virtual override returns (uint256) {\n        return _balances[account];\n    }\n\n    /**\n     * @dev See {IERC20-transfer}.\n     *\n     * Requirements:\n     *\n     * - `recipient` cannot be the zero address.\n     * - the caller must have a balance of at least `amount`.\n     */\n    function transfer(address recipient, uint256 amount) public virtual override returns (bool) {\n        _transfer(_msgSender(), recipient, amount);\n        return true;\n    }\n\n    /**\n     * @dev See {IERC20-allowance}.\n     */\n    function allowance(address _owner, address spender) public view virtual override returns (uint256) {\n        return _allowances[_owner][spender];\n    }\n\n    /**\n     * @dev See {IERC20-approve}.\n     *\n     * Requirements:\n     *\n     * - `spender` cannot be the zero address.\n     */\n    function approve(address spender, uint256 amount) public virtual override returns (bool) {\n        _approve(_msgSender(), spender, amount);\n        return true;\n    }\n\n    /**\n     * @dev See {IERC20-transferFrom}.\n     *\n     * Emits an {Approval} event indicating the updated allowance. This is not\n     * required by the EIP. See the note at the beginning of {ERC20}.\n     *\n     * Requirements:\n     *\n     * - `sender` and `recipient` cannot be the zero address.\n     * - `sender` must have a balance of at least `amount`.\n     * - the caller must have allowance for ``sender``'s tokens of at least\n     * `amount`.\n     */\n    function transferFrom(\n        address sender,\n        address recipient,\n        uint256 amount\n    ) public virtual override returns (bool) {\n        _transfer(sender, recipient, amount);\n\n        uint256 currentAllowance = _allowances[sender][_msgSender()];\n        require(currentAllowance >= amount, \"ERC20: transfer amount exceeds allowance\");\n        unchecked {\n            _approve(sender, _msgSender(), currentAllowance - amount);\n        }\n\n        return true;\n    }\n\n    /**\n     * @dev Atomically increases the allowance granted to `spender` by the caller.\n     *\n     * This is an alternative to {approve} that can be used as a mitigation for\n     * problems described in {IERC20-approve}.\n     *\n     * Emits an {Approval} event indicating the updated allowance.\n     *\n     * Requirements:\n     *\n     * - `spender` cannot be the zero address.\n     */\n    function increaseAllowance(address spender, uint256 addedValue) public override returns (bool) {\n        _approve(_msgSender(), spender, _allowances[_msgSender()][spender] + addedValue);\n        return true;\n    }\n\n    /**\n     * @dev Atomically decreases the allowance granted to `spender` by the caller.\n     *\n     * This is an alternative to {approve} that can be used as a mitigation for\n     * problems described in {IERC20-approve}.\n     *\n     * Emits an {Approval} event indicating the updated allowance.\n     *\n     * Requirements:\n     *\n     * - `spender` cannot be the zero address.\n     * - `spender` must have allowance for the caller of at least\n     * `subtractedValue`.\n     */\n    function decreaseAllowance(address spender, uint256 subtractedValue) public override returns (bool) {\n        uint256 currentAllowance = _allowances[_msgSender()][spender];\n        require(currentAllowance >= subtractedValue, \"ERC20: decreased allowance below zero\");\n        unchecked {\n            _approve(_msgSender(), spender, currentAllowance - subtractedValue);\n        }\n\n        return true;\n    }\n\n        /** @dev Creates `amount` tokens and assigns them to `account`, increasing\n     * the total supply.\n     *\n     * Emits a {Transfer} event with `from` set to the zero address.\n     *\n     * Requirements:\n     *\n     * - `account` cannot be the zero address.\n     */\n    function _mint(address account, uint256 amount) internal override {\n        require(account != address(0), \"ERC20: mint to the zero address\");\n\n        _beforeTokenTransfer(address(0), account, amount);\n\n        _totalSupply += amount;\n        _balances[account] += amount;\n        emit Transfer(address(0), account, amount);\n\n        _afterTokenTransfer(address(0), account, amount);\n    }\n\n    /**\n     * @dev Destroys `amount` tokens from `account`, reducing the\n     * total supply.\n     *\n     * Emits a {Transfer} event with `to` set to the zero address.\n     *\n     * Requirements:\n     *\n     * - `account` cannot be the zero address.\n     * - `account` must have at least `amount` tokens.\n     */\n    function _burn(address account, uint256 amount) internal override {\n        require(account != address(0), \"ERC20: burn from the zero address\");\n\n        _beforeTokenTransfer(account, address(0), amount);\n\n        uint256 accountBalance = _balances[account];\n        require(accountBalance >= amount, \"ERC20: burn amount exceeds balance\");\n        unchecked {\n            _balances[account] = accountBalance - amount;\n        }\n        _totalSupply -= amount;\n\n        emit Transfer(account, address(0), amount);\n\n        _afterTokenTransfer(account, address(0), amount);\n    }\n\n    /**\n     * @dev Sets `amount` as the allowance of `spender` over the `owner` s tokens.\n     *\n     * This internal function is equivalent to `approve`, and can be used to\n     * e.g. set automatic allowances for certain subsystems, etc.\n     *\n     * Emits an {Approval} event.\n     *\n     * Requirements:\n     *\n     * - `owner` cannot be the zero address.\n     * - `spender` cannot be the zero address.\n     */\n    function _approve(\n        address _owner,\n        address spender,\n        uint256 amount\n    ) internal override {\n        require(_owner!= address(0), \"ERC20: approve from the zero address\");\n        require(spender != address(0), \"ERC20: approve to the zero address\");\n\n        _allowances[_owner][spender] = amount;\n        emit Approval(owner(), spender, amount);\n    }\n\n}",
  "sourcePath": "G:\\Etherium\\Token ERC20 for Uniswap Sunny Bunny\\Sunny-Bunny-SuB\\contracts\\SunnyBunny.sol",
  "compiler": {
    "name": "solc",
    "version": "0.8.0+commit.c7dfd78e.Emscripten.clang"
  },
  "schemaVersion": "3.4.2",
  "updatedAt": "2021-08-06T10:05:25.768Z",
  "devdoc": {
    "kind": "dev",
    "methods": {
      "allowance(address,address)": {
        "details": "See {IERC20-allowance}."
      },
      "approve(address,uint256)": {
        "details": "See {IERC20-approve}. Requirements: - `spender` cannot be the zero address."
      },
      "balanceOf(address)": {
        "details": "See {IERC20-balanceOf}."
      },
      "decimals()": {
        "details": "Returns the number of decimals used to get its user representation. For example, if `decimals` equals `2`, a balance of `505` tokens should be displayed to a user as `5,05` (`505 / 10 ** 2`). Tokens usually opt for a value of 18, imitating the relationship between Ether and Wei. This is the value {ERC20} uses, unless this function is overridden; NOTE: This information is only used for _display_ purposes: it in no way affects any of the arithmetic of the contract, including {IERC20-balanceOf} and {IERC20-transfer}."
      },
      "decreaseAllowance(address,uint256)": {
        "details": "Atomically decreases the allowance granted to `spender` by the caller. This is an alternative to {approve} that can be used as a mitigation for problems described in {IERC20-approve}. Emits an {Approval} event indicating the updated allowance. Requirements: - `spender` cannot be the zero address. - `spender` must have allowance for the caller of at least `subtractedValue`."
      },
      "increaseAllowance(address,uint256)": {
        "details": "Atomically increases the allowance granted to `spender` by the caller. This is an alternative to {approve} that can be used as a mitigation for problems described in {IERC20-approve}. Emits an {Approval} event indicating the updated allowance. Requirements: - `spender` cannot be the zero address."
      },
      "name()": {
        "details": "Returns the name of the token."
      },
      "owner()": {
        "details": "Returns the address of the current owner."
      },
      "renounceOwnership()": {
        "details": "Leaves the contract without owner. It will not be possible to call `onlyOwner` functions anymore. Can only be called by the current owner. NOTE: Renouncing ownership will leave the contract without an owner, thereby removing any functionality that is only available to the owner."
      },
      "symbol()": {
        "details": "Returns the symbol of the token, usually a shorter version of the name."
      },
      "totalSupply()": {
        "details": "See {IERC20-totalSupply}."
      },
      "transfer(address,uint256)": {
        "details": "See {IERC20-transfer}. Requirements: - `recipient` cannot be the zero address. - the caller must have a balance of at least `amount`."
      },
      "transferFrom(address,address,uint256)": {
        "details": "See {IERC20-transferFrom}. Emits an {Approval} event indicating the updated allowance. This is not required by the EIP. See the note at the beginning of {ERC20}. Requirements: - `sender` and `recipient` cannot be the zero address. - `sender` must have a balance of at least `amount`. - the caller must have allowance for ``sender``'s tokens of at least `amount`."
      },
      "transferOwnership(address)": {
        "details": "Transfers ownership of the contract to a new account (`newOwner`). Can only be called by the current owner."
      }
    },
    "version": 1
  },
  "userdoc": {
    "kind": "user",
    "methods": {},
    "version": 1
  }
}