{
  "contractName": "SunnyBunnyUniswapLiquidity",
  "abi": [
    {
      "inputs": [
        {
          "internalType": "address",
          "name": "_tokenAddress",
          "type": "address"
        }
      ],
      "stateMutability": "nonpayable",
      "type": "constructor"
    },
    {
      "anonymous": false,
      "inputs": [
        {
          "indexed": false,
          "internalType": "string",
          "name": "message",
          "type": "string"
        },
        {
          "indexed": false,
          "internalType": "uint256",
          "name": "vol",
          "type": "uint256"
        }
      ],
      "name": "Log",
      "type": "event"
    },
    {
      "anonymous": false,
      "inputs": [
        {
          "indexed": true,
          "internalType": "address",
          "name": "previousOwner",
          "type": "address"
        },
        {
          "indexed": true,
          "internalType": "address",
          "name": "newOwner",
          "type": "address"
        }
      ],
      "name": "OwnershipTransferred",
      "type": "event"
    },
    {
      "anonymous": false,
      "inputs": [
        {
          "indexed": false,
          "internalType": "address",
          "name": "",
          "type": "address"
        },
        {
          "indexed": false,
          "internalType": "uint256",
          "name": "",
          "type": "uint256"
        }
      ],
      "name": "Received",
      "type": "event"
    },
    {
      "inputs": [],
      "name": "owner",
      "outputs": [
        {
          "internalType": "address",
          "name": "",
          "type": "address"
        }
      ],
      "stateMutability": "view",
      "type": "function"
    },
    {
      "inputs": [],
      "name": "renounceOwnership",
      "outputs": [],
      "stateMutability": "nonpayable",
      "type": "function"
    },
    {
      "inputs": [],
      "name": "tokenAddress",
      "outputs": [
        {
          "internalType": "address",
          "name": "",
          "type": "address"
        }
      ],
      "stateMutability": "view",
      "type": "function"
    },
    {
      "inputs": [
        {
          "internalType": "address",
          "name": "newOwner",
          "type": "address"
        }
      ],
      "name": "transferOwnership",
      "outputs": [],
      "stateMutability": "nonpayable",
      "type": "function"
    },
    {
      "stateMutability": "payable",
      "type": "receive"
    },
    {
      "inputs": [
        {
          "internalType": "uint256",
          "name": "_amountToken",
          "type": "uint256"
        }
      ],
      "name": "transferTokensToContract",
      "outputs": [],
      "stateMutability": "nonpayable",
      "type": "function"
    },
    {
      "inputs": [
        {
          "internalType": "uint256",
          "name": "_amountToken",
          "type": "uint256"
        }
      ],
      "name": "addLiquidity",
      "outputs": [],
      "stateMutability": "payable",
      "type": "function"
    },
    {
      "inputs": [
        {
          "internalType": "uint256",
          "name": "_liquidity",
          "type": "uint256"
        }
      ],
      "name": "removeETHLiquidity",
      "outputs": [],
      "stateMutability": "nonpayable",
      "type": "function"
    },
    {
      "inputs": [
        {
          "internalType": "uint256",
          "name": "_amountOutMin",
          "type": "uint256"
        }
      ],
      "name": "swapExactETHForTokens",
      "outputs": [],
      "stateMutability": "payable",
      "type": "function"
    },
    {
      "inputs": [
        {
          "internalType": "uint256",
          "name": "_amountOut",
          "type": "uint256"
        },
        {
          "internalType": "uint256",
          "name": "_amountInMax",
          "type": "uint256"
        }
      ],
      "name": "swapTokensForExactETH",
      "outputs": [],
      "stateMutability": "nonpayable",
      "type": "function"
    },
    {
      "inputs": [
        {
          "internalType": "uint256",
          "name": "_amountIn",
          "type": "uint256"
        },
        {
          "internalType": "uint256",
          "name": "_amountOutMin",
          "type": "uint256"
        }
      ],
      "name": "swapExactTokensForETH",
      "outputs": [],
      "stateMutability": "nonpayable",
      "type": "function"
    },
    {
      "inputs": [
        {
          "internalType": "uint256",
          "name": "_amountOut",
          "type": "uint256"
        }
      ],
      "name": "swapETHForExactTokens",
      "outputs": [],
      "stateMutability": "payable",
      "type": "function"
    },
    {
      "inputs": [],
      "name": "getAddressContract",
      "outputs": [
        {
          "internalType": "address",
          "name": "",
          "type": "address"
        }
      ],
      "stateMutability": "view",
      "type": "function"
    },
    {
      "inputs": [],
      "name": "getTokensBalanceOnContract",
      "outputs": [
        {
          "internalType": "uint256",
          "name": "",
          "type": "uint256"
        }
      ],
      "stateMutability": "view",
      "type": "function"
    },
    {
      "inputs": [],
      "name": "getTokensBalanceSender",
      "outputs": [
        {
          "internalType": "uint256",
          "name": "",
          "type": "uint256"
        }
      ],
      "stateMutability": "view",
      "type": "function"
    },
    {
      "inputs": [],
      "name": "getTokensAllowance",
      "outputs": [
        {
          "internalType": "uint256",
          "name": "",
          "type": "uint256"
        }
      ],
      "stateMutability": "view",
      "type": "function"
    }
  ],
  "bytecode": "0x60a06040523480156200001157600080fd5b506040516200255e3803806200255e8339818101604052810190620000379190620001b9565b620000576200004b620000d660201b60201c565b620000de60201b60201c565b8073ffffffffffffffffffffffffffffffffffffffff1660808173ffffffffffffffffffffffffffffffffffffffff1660601b8152505080600360006101000a81548173ffffffffffffffffffffffffffffffffffffffff021916908373ffffffffffffffffffffffffffffffffffffffff1602179055505062000233565b600033905090565b60008060009054906101000a900473ffffffffffffffffffffffffffffffffffffffff169050816000806101000a81548173ffffffffffffffffffffffffffffffffffffffff021916908373ffffffffffffffffffffffffffffffffffffffff1602179055508173ffffffffffffffffffffffffffffffffffffffff168173ffffffffffffffffffffffffffffffffffffffff167f8be0079c531659141344cd1fd0a4f28419497f9722a3daafe3b4186f6b6457e060405160405180910390a35050565b600081519050620001b38162000219565b92915050565b600060208284031215620001cc57600080fd5b6000620001dc84828501620001a2565b91505092915050565b6000620001f282620001f9565b9050919050565b600073ffffffffffffffffffffffffffffffffffffffff82169050919050565b6200022481620001e5565b81146200023057600080fd5b50565b60805160601c61230f6200024f6000396000505061230f6000f3fe6080604052600436106100ec5760003560e01c8063918567f61161008a578063d433ea0f11610059578063d433ea0f146102d2578063ee5e47fd146102fb578063f2fde38b14610317578063f8aff5f4146103405761012c565b8063918567f61461022857806394fb855a146102535780639d76ea581461027c578063a06055ea146102a75761012c565b806351c6590a116100c657806351c6590a1461019f578063715018a6146101bb57806380acfd2c146101d25780638da5cb5b146101fd5761012c565b806309909142146101315780631dc437b11461015a5780633dee3601146101765761012c565b3661012c577f88a5966d370b9919b20f3e2c13ff65706f196a4e32cc2c12bf57088f885258743334604051610122929190611eaa565b60405180910390a1005b600080fd5b34801561013d57600080fd5b5061015860048036038101906101539190611b4c565b61036b565b005b610174600480360381019061016f9190611afa565b61062a565b005b34801561018257600080fd5b5061019d60048036038101906101989190611afa565b6108e6565b005b6101b960048036038101906101b49190611afa565b610c6e565b005b3480156101c757600080fd5b506101d0610e08565b005b3480156101de57600080fd5b506101e7610e90565b6040516101f4919061201e565b60405180910390f35b34801561020957600080fd5b50610212610f44565b60405161021f9190611e2f565b60405180910390f35b34801561023457600080fd5b5061023d610f6d565b60405161024a919061201e565b60405180910390f35b34801561025f57600080fd5b5061027a60048036038101906102759190611b4c565b61101f565b005b34801561028857600080fd5b50610291611304565b60405161029e9190611e2f565b60405180910390f35b3480156102b357600080fd5b506102bc61132a565b6040516102c9919061201e565b60405180910390f35b3480156102de57600080fd5b506102f960048036038101906102f49190611afa565b6113dc565b005b61031560048036038101906103109190611afa565b611491565b005b34801561032357600080fd5b5061033e60048036038101906103399190611a3e565b611773565b005b34801561034c57600080fd5b5061035561186b565b6040516103629190611e2f565b60405180910390f35b6000600160009054906101000a900473ffffffffffffffffffffffffffffffffffffffff1673ffffffffffffffffffffffffffffffffffffffff1663ad5c46486040518163ffffffff1660e01b815260040160206040518083038186803b1580156103d557600080fd5b505afa1580156103e9573d6000803e3d6000fd5b505050506040513d601f19601f8201168201806040525081019061040d9190611a67565b90506000600267ffffffffffffffff811115610452577f4e487b7100000000000000000000000000000000000000000000000000000000600052604160045260246000fd5b6040519080825280602002602001820160405280156104805781602001602082028036833780820191505090505b50905081816000815181106104be577f4e487b7100000000000000000000000000000000000000000000000000000000600052603260045260246000fd5b602002602001019073ffffffffffffffffffffffffffffffffffffffff16908173ffffffffffffffffffffffffffffffffffffffff1681525050600360009054906101000a900473ffffffffffffffffffffffffffffffffffffffff1681600181518110610555577f4e487b7100000000000000000000000000000000000000000000000000000000600052603260045260246000fd5b602002602001019073ffffffffffffffffffffffffffffffffffffffff16908173ffffffffffffffffffffffffffffffffffffffff1681525050600160009054906101000a900473ffffffffffffffffffffffffffffffffffffffff1673ffffffffffffffffffffffffffffffffffffffff1663791ac94785858430426040518663ffffffff1660e01b81526004016105f2959493929190612085565b600060405180830381600087803b15801561060c57600080fd5b505af1158015610620573d6000803e3d6000fd5b5050505050505050565b6000600160009054906101000a900473ffffffffffffffffffffffffffffffffffffffff1673ffffffffffffffffffffffffffffffffffffffff1663ad5c46486040518163ffffffff1660e01b815260040160206040518083038186803b15801561069457600080fd5b505afa1580156106a8573d6000803e3d6000fd5b505050506040513d601f19601f820116820180604052508101906106cc9190611a67565b90506000600267ffffffffffffffff811115610711577f4e487b7100000000000000000000000000000000000000000000000000000000600052604160045260246000fd5b60405190808252806020026020018201604052801561073f5781602001602082028036833780820191505090505b509050818160008151811061077d577f4e487b7100000000000000000000000000000000000000000000000000000000600052603260045260246000fd5b602002602001019073ffffffffffffffffffffffffffffffffffffffff16908173ffffffffffffffffffffffffffffffffffffffff1681525050600360009054906101000a900473ffffffffffffffffffffffffffffffffffffffff1681600181518110610814577f4e487b7100000000000000000000000000000000000000000000000000000000600052603260045260246000fd5b602002602001019073ffffffffffffffffffffffffffffffffffffffff16908173ffffffffffffffffffffffffffffffffffffffff1681525050600160009054906101000a900473ffffffffffffffffffffffffffffffffffffffff1673ffffffffffffffffffffffffffffffffffffffff1663b6f9de95848330426040518563ffffffff1660e01b81526004016108af9493929190612039565b600060405180830381600087803b1580156108c957600080fd5b505af11580156108dd573d6000803e3d6000fd5b50505050505050565b6108ee611873565b73ffffffffffffffffffffffffffffffffffffffff1661090c610f44565b73ffffffffffffffffffffffffffffffffffffffff1614610962576040517f08c379a000000000000000000000000000000000000000000000000000000000815260040161095990611fa2565b60405180910390fd5b6000600160009054906101000a900473ffffffffffffffffffffffffffffffffffffffff1673ffffffffffffffffffffffffffffffffffffffff1663ad5c46486040518163ffffffff1660e01b815260040160206040518083038186803b1580156109cc57600080fd5b505afa1580156109e0573d6000803e3d6000fd5b505050506040513d601f19601f82011682018060405250810190610a049190611a67565b90506000600260009054906101000a900473ffffffffffffffffffffffffffffffffffffffff1673ffffffffffffffffffffffffffffffffffffffff1663e6a43905600360009054906101000a900473ffffffffffffffffffffffffffffffffffffffff16846040518363ffffffff1660e01b8152600401610a87929190611e4a565b60206040518083038186803b158015610a9f57600080fd5b505afa158015610ab3573d6000803e3d6000fd5b505050506040513d601f19601f82011682018060405250810190610ad79190611a67565b9050828173ffffffffffffffffffffffffffffffffffffffff166370a08231306040518263ffffffff1660e01b8152600401610b139190611e2f565b60206040518083038186803b158015610b2b57600080fd5b505afa158015610b3f573d6000803e3d6000fd5b505050506040513d601f19601f82011682018060405250810190610b639190611b23565b1015610ba4576040517f08c379a0000000000000000000000000000000000000000000000000000000008152600401610b9b90611f34565b60405180910390fd5b600160009054906101000a900473ffffffffffffffffffffffffffffffffffffffff1673ffffffffffffffffffffffffffffffffffffffff1663af2979eb828560008030601442610bf59190612186565b6040518763ffffffff1660e01b8152600401610c1696959493929190611ed3565b602060405180830381600087803b158015610c3057600080fd5b505af1158015610c44573d6000803e3d6000fd5b505050506040513d601f19601f82011682018060405250810190610c689190611b23565b50505050565b610c77816113dc565b6000806000600160009054906101000a900473ffffffffffffffffffffffffffffffffffffffff1673ffffffffffffffffffffffffffffffffffffffff1663f305d71934600360009054906101000a900473ffffffffffffffffffffffffffffffffffffffff168760008030426040518863ffffffff1660e01b8152600401610d0596959493929190611ed3565b6060604051808303818588803b158015610d1e57600080fd5b505af1158015610d32573d6000803e3d6000fd5b50505050506040513d601f19601f82011682018060405250810190610d579190611b88565b9250925092507fdd970dd9b5bfe707922155b058a407655cb18288b807e2216442bca8ad83d6b583604051610d8c9190611fc2565b60405180910390a17fdd970dd9b5bfe707922155b058a407655cb18288b807e2216442bca8ad83d6b582604051610dc39190611f74565b60405180910390a17fdd970dd9b5bfe707922155b058a407655cb18288b807e2216442bca8ad83d6b581604051610dfa9190611ff0565b60405180910390a150505050565b610e10611873565b73ffffffffffffffffffffffffffffffffffffffff16610e2e610f44565b73ffffffffffffffffffffffffffffffffffffffff1614610e84576040517f08c379a0000000000000000000000000000000000000000000000000000000008152600401610e7b90611fa2565b60405180910390fd5b610e8e600061187b565b565b6000600360009054906101000a900473ffffffffffffffffffffffffffffffffffffffff1673ffffffffffffffffffffffffffffffffffffffff1663dd62ed3e33306040518363ffffffff1660e01b8152600401610eef929190611e4a565b60206040518083038186803b158015610f0757600080fd5b505afa158015610f1b573d6000803e3d6000fd5b505050506040513d601f19601f82011682018060405250810190610f3f9190611b23565b905090565b60008060009054906101000a900473ffffffffffffffffffffffffffffffffffffffff16905090565b6000600360009054906101000a900473ffffffffffffffffffffffffffffffffffffffff1673ffffffffffffffffffffffffffffffffffffffff166370a08231336040518263ffffffff1660e01b8152600401610fca9190611e2f565b60206040518083038186803b158015610fe257600080fd5b505afa158015610ff6573d6000803e3d6000fd5b505050506040513d601f19601f8201168201806040525081019061101a9190611b23565b905090565b6000600160009054906101000a900473ffffffffffffffffffffffffffffffffffffffff1673ffffffffffffffffffffffffffffffffffffffff1663ad5c46486040518163ffffffff1660e01b815260040160206040518083038186803b15801561108957600080fd5b505afa15801561109d573d6000803e3d6000fd5b505050506040513d601f19601f820116820180604052508101906110c19190611a67565b90506000600267ffffffffffffffff811115611106577f4e487b7100000000000000000000000000000000000000000000000000000000600052604160045260246000fd5b6040519080825280602002602001820160405280156111345781602001602082028036833780820191505090505b5090508181600081518110611172577f4e487b7100000000000000000000000000000000000000000000000000000000600052603260045260246000fd5b602002602001019073ffffffffffffffffffffffffffffffffffffffff16908173ffffffffffffffffffffffffffffffffffffffff1681525050600360009054906101000a900473ffffffffffffffffffffffffffffffffffffffff1681600181518110611209577f4e487b7100000000000000000000000000000000000000000000000000000000600052603260045260246000fd5b602002602001019073ffffffffffffffffffffffffffffffffffffffff16908173ffffffffffffffffffffffffffffffffffffffff1681525050600160009054906101000a900473ffffffffffffffffffffffffffffffffffffffff1673ffffffffffffffffffffffffffffffffffffffff16634a25d94a85858430426040518663ffffffff1660e01b81526004016112a6959493929190612085565b600060405180830381600087803b1580156112c057600080fd5b505af11580156112d4573d6000803e3d6000fd5b505050506040513d6000823e3d601f19601f820116820180604052508101906112fd9190611a90565b5050505050565b600360009054906101000a900473ffffffffffffffffffffffffffffffffffffffff1681565b6000600360009054906101000a900473ffffffffffffffffffffffffffffffffffffffff1673ffffffffffffffffffffffffffffffffffffffff166370a08231306040518263ffffffff1660e01b81526004016113879190611e2f565b60206040518083038186803b15801561139f57600080fd5b505afa1580156113b3573d6000803e3d6000fd5b505050506040513d601f19601f820116820180604052508101906113d79190611b23565b905090565b600360009054906101000a900473ffffffffffffffffffffffffffffffffffffffff1673ffffffffffffffffffffffffffffffffffffffff166323b872dd3330846040518463ffffffff1660e01b815260040161143b93929190611e73565b602060405180830381600087803b15801561145557600080fd5b505af1158015611469573d6000803e3d6000fd5b505050506040513d601f19601f8201168201806040525081019061148d9190611ad1565b5050565b6000600160009054906101000a900473ffffffffffffffffffffffffffffffffffffffff1673ffffffffffffffffffffffffffffffffffffffff1663ad5c46486040518163ffffffff1660e01b815260040160206040518083038186803b1580156114fb57600080fd5b505afa15801561150f573d6000803e3d6000fd5b505050506040513d601f19601f820116820180604052508101906115339190611a67565b90506000600267ffffffffffffffff811115611578577f4e487b7100000000000000000000000000000000000000000000000000000000600052604160045260246000fd5b6040519080825280602002602001820160405280156115a65781602001602082028036833780820191505090505b50905081816000815181106115e4577f4e487b7100000000000000000000000000000000000000000000000000000000600052603260045260246000fd5b602002602001019073ffffffffffffffffffffffffffffffffffffffff16908173ffffffffffffffffffffffffffffffffffffffff1681525050600360009054906101000a900473ffffffffffffffffffffffffffffffffffffffff168160018151811061167b577f4e487b7100000000000000000000000000000000000000000000000000000000600052603260045260246000fd5b602002602001019073ffffffffffffffffffffffffffffffffffffffff16908173ffffffffffffffffffffffffffffffffffffffff1681525050600160009054906101000a900473ffffffffffffffffffffffffffffffffffffffff1673ffffffffffffffffffffffffffffffffffffffff1663fb3bdb41848330426040518563ffffffff1660e01b81526004016117169493929190612039565b600060405180830381600087803b15801561173057600080fd5b505af1158015611744573d6000803e3d6000fd5b505050506040513d6000823e3d601f19601f8201168201806040525081019061176d9190611a90565b50505050565b61177b611873565b73ffffffffffffffffffffffffffffffffffffffff16611799610f44565b73ffffffffffffffffffffffffffffffffffffffff16146117ef576040517f08c379a00000000000000000000000000000000000000000000000000000000081526004016117e690611fa2565b60405180910390fd5b600073ffffffffffffffffffffffffffffffffffffffff168173ffffffffffffffffffffffffffffffffffffffff16141561185f576040517f08c379a000000000000000000000000000000000000000000000000000000000815260040161185690611f54565b60405180910390fd5b6118688161187b565b50565b600030905090565b600033905090565b60008060009054906101000a900473ffffffffffffffffffffffffffffffffffffffff169050816000806101000a81548173ffffffffffffffffffffffffffffffffffffffff021916908373ffffffffffffffffffffffffffffffffffffffff1602179055508173ffffffffffffffffffffffffffffffffffffffff168173ffffffffffffffffffffffffffffffffffffffff167f8be0079c531659141344cd1fd0a4f28419497f9722a3daafe3b4186f6b6457e060405160405180910390a35050565b600061195261194d84612110565b6120df565b9050808382526020820190508285602086028201111561197157600080fd5b60005b858110156119a157816119878882611a29565b845260208401935060208301925050600181019050611974565b5050509392505050565b6000813590506119ba81612294565b92915050565b6000815190506119cf81612294565b92915050565b600082601f8301126119e657600080fd5b81516119f684826020860161193f565b91505092915050565b600081519050611a0e816122ab565b92915050565b600081359050611a23816122c2565b92915050565b600081519050611a38816122c2565b92915050565b600060208284031215611a5057600080fd5b6000611a5e848285016119ab565b91505092915050565b600060208284031215611a7957600080fd5b6000611a87848285016119c0565b91505092915050565b600060208284031215611aa257600080fd5b600082015167ffffffffffffffff811115611abc57600080fd5b611ac8848285016119d5565b91505092915050565b600060208284031215611ae357600080fd5b6000611af1848285016119ff565b91505092915050565b600060208284031215611b0c57600080fd5b6000611b1a84828501611a14565b91505092915050565b600060208284031215611b3557600080fd5b6000611b4384828501611a29565b91505092915050565b60008060408385031215611b5f57600080fd5b6000611b6d85828601611a14565b9250506020611b7e85828601611a14565b9150509250929050565b600080600060608486031215611b9d57600080fd5b6000611bab86828701611a29565b9350506020611bbc86828701611a29565b9250506040611bcd86828701611a29565b9150509250925092565b6000611be38383611bef565b60208301905092915050565b611bf8816121dc565b82525050565b611c07816121dc565b82525050565b6000611c188261214c565b611c228185612164565b9350611c2d8361213c565b8060005b83811015611c5e578151611c458882611bd7565b9750611c5083612157565b925050600181019050611c31565b5085935050505092915050565b611c7481612224565b82525050565b6000611c87601783612175565b91507f4c6971756964697479206973206e6f7420656e6f7567680000000000000000006000830152602082019050919050565b6000611cc7602683612175565b91507f4f776e61626c653a206e6577206f776e657220697320746865207a65726f206160008301527f64647265737300000000000000000000000000000000000000000000000000006020830152604082019050919050565b6000611d2d600e83612175565b91507f616d6f756e742045544820203d200000000000000000000000000000000000006000830152602082019050919050565b6000611d6d602083612175565b91507f4f776e61626c653a2063616c6c6572206973206e6f7420746865206f776e65726000830152602082019050919050565b6000611dad601083612175565b91507f616d6f756e7420746f6b656e20203d20000000000000000000000000000000006000830152602082019050919050565b6000611ded601483612175565b91507f616d6f756e74206c697175696469747920203d200000000000000000000000006000830152602082019050919050565b611e298161221a565b82525050565b6000602082019050611e446000830184611bfe565b92915050565b6000604082019050611e5f6000830185611bfe565b611e6c6020830184611bfe565b9392505050565b6000606082019050611e886000830186611bfe565b611e956020830185611bfe565b611ea26040830184611e20565b949350505050565b6000604082019050611ebf6000830185611bfe565b611ecc6020830184611e20565b9392505050565b600060c082019050611ee86000830189611bfe565b611ef56020830188611e20565b611f026040830187611c6b565b611f0f6060830186611c6b565b611f1c6080830185611bfe565b611f2960a0830184611e20565b979650505050505050565b60006020820190508181036000830152611f4d81611c7a565b9050919050565b60006020820190508181036000830152611f6d81611cba565b9050919050565b60006040820190508181036000830152611f8d81611d20565b9050611f9c6020830184611e20565b92915050565b60006020820190508181036000830152611fbb81611d60565b9050919050565b60006040820190508181036000830152611fdb81611da0565b9050611fea6020830184611e20565b92915050565b6000604082019050818103600083015261200981611de0565b90506120186020830184611e20565b92915050565b60006020820190506120336000830184611e20565b92915050565b600060808201905061204e6000830187611e20565b81810360208301526120608186611c0d565b905061206f6040830185611bfe565b61207c6060830184611e20565b95945050505050565b600060a08201905061209a6000830188611e20565b6120a76020830187611e20565b81810360408301526120b98186611c0d565b90506120c86060830185611bfe565b6120d56080830184611e20565b9695505050505050565b6000604051905081810181811067ffffffffffffffff8211171561210657612105612265565b5b8060405250919050565b600067ffffffffffffffff82111561212b5761212a612265565b5b602082029050602081019050919050565b6000819050602082019050919050565b600081519050919050565b6000602082019050919050565b600082825260208201905092915050565b600082825260208201905092915050565b60006121918261221a565b915061219c8361221a565b9250827fffffffffffffffffffffffffffffffffffffffffffffffffffffffffffffffff038211156121d1576121d0612236565b5b828201905092915050565b60006121e7826121fa565b9050919050565b60008115159050919050565b600073ffffffffffffffffffffffffffffffffffffffff82169050919050565b6000819050919050565b600061222f8261221a565b9050919050565b7f4e487b7100000000000000000000000000000000000000000000000000000000600052601160045260246000fd5b7f4e487b7100000000000000000000000000000000000000000000000000000000600052604160045260246000fd5b61229d816121dc565b81146122a857600080fd5b50565b6122b4816121ee565b81146122bf57600080fd5b50565b6122cb8161221a565b81146122d657600080fd5b5056fea2646970667358221220b59c64441dd19f8048c61aba77e911751b5dc73c9e846ba8a71bfa984fad7ce164736f6c63430008000033",
  "immutableReferences": {},
  "source": "// SPDX-License-Identifier: MIT\r\n\r\npragma solidity 0.8.0;\r\n\r\n/**import {factorySuB} from \"./SunnyBunny.sol\";   -  \r\n* https://docs.soliditylang.org/en/v0.5.0/layout-of-source-files.html?highlight=import#import\r\n*/\r\n\r\nimport \"./SunnyBunny.sol\";\r\nimport \"@uniswap/v2-periphery/contracts/interfaces/IUniswapV2Router02.sol\";\r\nimport \"@openzeppelin/contracts/token/ERC20/IERC20.sol\";\r\nimport \"@uniswap/v2-core/contracts/interfaces/IUniswapV2Factory.sol\";\r\n//import \"@uniswap/v2-core/contracts/UniswapV2Factory.sol\";\r\n\r\ncontract SunnyBunnyUniswapLiquidity is Ownable {\r\n\r\n    SunnyBunny immutable tokenSuB; //could be change once\r\n    event Received(address, uint);\r\n    event Log(string message, uint vol);\r\n\r\n    IUniswapV2Router02 private uniswapV2Router;\r\n    IUniswapV2Factory private uniswapV2Factory;\r\n    //IUniswapV2Pair private tokenPair;\r\n    address public tokenAddress;\r\n\r\n    /** @dev Address from doc https://uniswap.org/docs/v2/smart-contracts/factory/#address */\r\n    address private constant UNISWAPV2_FACTORY = 0x5C69bEe701ef814a2B6a3EDD4B1652CB9cc5aA6f;\r\n\r\n    /** @dev Address from doc https://uniswap.org/docs/v2/smart-contracts/router02/ */\r\n    address private constant ROUTER02 = 0x7a250d5630B4cF539739dF2C5dAcb4c659F2488D;\r\n\r\n    /** @dev Address WETH from doc to https://blog.0xproject.com/canonical-weth-a9aa7d0279dd\r\n    * Mainnet: 0xc02aaa39b223fe8d0a0e5c4f27ead9083c756cc2\r\n    * Kovan: 0xd0a1e359811322d97991e03f863a0c30c2cf029c\r\n    * Ropsten: 0xc778417e063141139fce010982780140aa0cd5ab\r\n    * Rinkeby: 0xc778417e063141139fce010982780140aa0cd5ab\r\n    */\r\n\r\n    constructor(address _tokenAddress) {\r\n        tokenSuB = SunnyBunny(_tokenAddress);\r\n        tokenAddress = _tokenAddress;\r\n    }\r\n\r\n    function transferTokensToContract(uint _amountToken) public {\r\n        IERC20(tokenAddress).transferFrom(msg.sender, address(this), _amountToken);\r\n    }\r\n\r\n    function addLiquidity(uint _amountToken) public payable {\r\n        // TODO - remove it if no need more\r\n        //uint256 amountSendETH = msg.value;\r\n\r\n       transferTokensToContract(_amountToken);\r\n\r\n        (uint amountToken, uint amountETH, uint liquidity) = uniswapV2Router.addLiquidityETH{value: msg.value}(\r\n            tokenAddress,\r\n            _amountToken,\r\n            0, // for change add _amountTokenMin like argument for this function and parent addLiquidity()\r\n            0, // for change add _amountETHMin to argument for this function and parent addLiquidity()\r\n            address(this),\r\n            block.timestamp\r\n        );\r\n\r\n        emit Log(\"amount token  = \", amountToken);\r\n        emit Log(\"amount ETH  = \", amountETH);\r\n        emit Log(\"amount liquidity  = \", liquidity);\r\n\r\n    }\r\n\r\n    function removeETHLiquidity(uint _liquidity) external onlyOwner {\r\n        // TODO   \"weth\", \"pair\"    ,       ?\r\n        // get address of Token pair Uniswap V2 LP\r\n        address weth = uniswapV2Router.WETH();\r\n        address pair = uniswapV2Factory.getPair(tokenAddress, weth);\r\n        require(IERC20(pair).balanceOf(address(this)) >= _liquidity, \"Liquidity is not enough\");\r\n\r\n        uniswapV2Router.removeLiquidityETHSupportingFeeOnTransferTokens(\r\n            pair,\r\n            _liquidity,\r\n            0, // for change add _amountTokenMin like argument for this function\r\n                //and parent removeETHLiquidityFromToken()\r\n            0, // for change add _amountETHMin to argument for this function\r\n            address(this), // for change add address _to like argument for this function\r\n                            //and parent removeETHLiquidityFromToken()\r\n            block.timestamp + 20\r\n        );\r\n\r\n    }\r\n\r\n    // **** SWAP ****\r\n    // requires the initial amount to have already been sent to the first pair\r\n\r\n    //TODO make sure:  **** Swap for SuB/ETH pair ****\r\n\r\n    //TODO make sure: sell tokens at a maximum price\r\n    function swapExactETHForTokens(uint _amountOutMin) public payable {\r\n        // TODO   \"path\"    ,       ?\r\n        address weth = uniswapV2Router.WETH();\r\n        address[] memory path = new address[](2);\r\n        path[0] = weth;\r\n        path[1] = tokenAddress;\r\n\r\n        /**@author use swapExactETHForTokens for token without fee */\r\n        uniswapV2Router.swapExactETHForTokensSupportingFeeOnTransferTokens(\r\n                _amountOutMin, path, address(this), block.timestamp\r\n        );\r\n\r\n    }\r\n\r\n    //TODO make sure: buy tokens at a minimum price\r\n     function swapTokensForExactETH(uint _amountOut, uint _amountInMax) public {\r\n        address weth = uniswapV2Router.WETH();\r\n        address[] memory path = new address[](2);\r\n        path[0] = weth;\r\n        path[1] = tokenAddress;\r\n\r\n        uniswapV2Router.swapTokensForExactETH(_amountOut, _amountInMax, path, address(this), block.timestamp);\r\n    }\r\n\r\n    //TODO make sure:  **** Swap for ETH/SuB pair ****\r\n\r\n    //TODO make sure: sell tokens at maximum price\r\n     function swapExactTokensForETH(uint _amountIn, uint _amountOutMin) public {\r\n        address weth = uniswapV2Router.WETH();\r\n        address[] memory path = new address[](2);\r\n        path[0] = weth;\r\n        path[1] = tokenAddress;\r\n\r\n         /**@author use swapExactTokensForETH for token without fee */\r\n        uniswapV2Router.swapExactTokensForETHSupportingFeeOnTransferTokens(\r\n                _amountIn, _amountOutMin, path, address(this), block.timestamp\r\n        );\r\n    }\r\n\r\n    //TODO make sure: buy tokens at market price\r\n     function swapETHForExactTokens(uint _amountOut) public payable {\r\n        address weth = uniswapV2Router.WETH();\r\n        address[] memory path = new address[](2);\r\n        path[0] = weth;\r\n        path[1] = tokenAddress;\r\n\r\n        uniswapV2Router.swapETHForExactTokens(_amountOut, path, address(this), block.timestamp);\r\n    }\r\n\r\n    /** TODO remove if no need */\r\n        receive() external payable {\r\n            emit Received(msg.sender, msg.value);\r\n        }\r\n\r\n    /** ============  SERVICE FUNCTIONS ============= */\r\n\r\n       function getAddressContract()  view external returns(address) {\r\n        //IERC20(tokenAddress).approve(address(this), _amountToken);\r\n        return address(this);\r\n    }\r\n\r\n    function getTokensBalanceOnContract() view external returns(uint) {\r\n        return IERC20(tokenAddress).balanceOf(address(this));\r\n    }\r\n\r\n    function getTokensBalanceSender() view external returns(uint256) {\r\n        return IERC20(tokenAddress).balanceOf(msg.sender);\r\n    }\r\n\r\n    function getTokensAllowance() view external returns(uint256) {\r\n        return IERC20(tokenAddress).allowance(msg.sender, address(this));\r\n    }\r\n}",
  "sourcePath": "G:\\Etherium\\Token ERC20 for Uniswap Sunny Bunny\\Sunny-Bunny-SuB\\contracts\\SunnyBunnyUniswapLiquidity .sol",
  "compiler": {
    "name": "solc",
    "version": "0.8.0+commit.c7dfd78e.Emscripten.clang"
  },
  "schemaVersion": "3.4.2",
  "updatedAt": "2021-08-06T10:05:25.782Z",
  "devdoc": {
    "kind": "dev",
    "methods": {
      "constructor": {
        "details": "Address WETH from doc to https://blog.0xproject.com/canonical-weth-a9aa7d0279dd Mainnet: 0xc02aaa39b223fe8d0a0e5c4f27ead9083c756cc2 Kovan: 0xd0a1e359811322d97991e03f863a0c30c2cf029c Ropsten: 0xc778417e063141139fce010982780140aa0cd5ab Rinkeby: 0xc778417e063141139fce010982780140aa0cd5ab"
      },
      "owner()": {
        "details": "Returns the address of the current owner."
      },
      "renounceOwnership()": {
        "details": "Leaves the contract without owner. It will not be possible to call `onlyOwner` functions anymore. Can only be called by the current owner. NOTE: Renouncing ownership will leave the contract without an owner, thereby removing any functionality that is only available to the owner."
      },
      "transferOwnership(address)": {
        "details": "Transfers ownership of the contract to a new account (`newOwner`). Can only be called by the current owner."
      }
    },
    "stateVariables": {
      "ROUTER02": {
        "details": "Address from doc https://uniswap.org/docs/v2/smart-contracts/router02/ "
      },
      "UNISWAPV2_FACTORY": {
        "details": "Address from doc https://uniswap.org/docs/v2/smart-contracts/factory/#address "
      }
    },
    "version": 1
  },
  "userdoc": {
    "kind": "user",
    "methods": {
      "getAddressContract()": {
        "notice": "============  SERVICE FUNCTIONS ============= "
      }
    },
    "version": 1
  }
}